:1008BB004C6F6164696E672E2E2E00483A004C3ADD
:1008CB00002020202020202020202020202020203D
:1008DB00200054483A00544C3A00546F6F20486F34
:1008EB007400546F6F20436F6C6400202020202015
:1008FB0020202000536176696E672E2E2E005465E2
:10090B006D703A0055706C6F6164696E672E2E2E98
:01091B0000DB
:030DBA00010D0028
:10053A00120D317BFF7A0879BB7D017F01120B68AE
:10054A00E4FF120A908F127F01120A908F0CD3E5F2
:10055A0012648094FD5015C3E50C64809449400CE4
:10056A00E5126480F8E50C648098402275121475CF
:10057A000C0FAD12E4FF120BD37F057E00120C861E
:10058A00AD0C7F01120BD37F057E00120C867BFF18
:10059A007A0879C67D017F02120B687BFF7A087997
:1005AA00C97D087F02120B68E512FB3395E0FA75E4
:1005BA0059037D037F021209CCE50CFB3395E0FA5F
:1005CA007559037D0B7F021209CC120D567FE87E06
:1005DA0003120C86120CED120D047BFF7A0879CCFB
:0705EA007D017F02020B6896
:1005F100120D56120AEC8F168E158D148C13E4FF12
:10060100FEFDFCAB16AA15A914A8131201B4501EC5
:100611007B2D7D067F01120D90AF16AE15AD14AC8A
:100621001312022D8F118E108D0F8C0E80157B20D1
:100631007D067F01120D9085161185151085140F09
:1006410085130EAF11AE10AD0FAC0E12027CAB07CD
:10065100AA067559037D077F01120BB17B2E7D0A16
:100661007F01120D90E4FFFE7DC87C42AB11AA1000
:10067100A90FA80E12000E12027CE47B64FAF9F8AD
:0D0681001203CD7559027D0B7F01020BB1F4
:10046D00E518D394005003020539E518940A4003AA
:10047D00020539E518B401100512C2A4D3E51264C2
:10048D008094FD400375127DE518B402111512D349
:10049D00E50C6480F8E51264809850020512E518A9
:1004AD00B40311050CC3E5126480F8E50C64809863
:1004BD004002150CE518B4040E150CC3E50C648050
:1004CD0094495003750CC97BFF7A0879DD7D017F56
:1004DD0002120B687BFF7A0879E17D097F02120B0E
:1004ED0068E512FB3395E0FA7559037D047F02121E
:1004FD0009CCE50CFB3395E0FA7559037D0C7F02B1
:10050D001209CCAD12E4FF120BD37F057E00120C45
:10051D0086AD0C7F01120BD37F417E00120C867BC2
:0D052D00FF7A0879CC7D017F02120B682255
:10091C00AC12EC120248AB16AA15A914A8131201BA
:10092C00B4600A40087BFF7A0879E5803AAC0CEC9D
:10093C00120248AB16AA15A914A8131201B4500838
:10094C007BFF7A0879ED801FAC0CEC120248AB16D9
:10095C00AA15A914A8131201B47BFF40067A0879D2
:0F096C00F680047A0879CC7D017F02120B682295
:10068E00E5186410703E850D17120CA27F057E00D2
:10069E00120C867BFF7A0879FF7D017F01120B68B1
:1006AE00E4F555E555C395175062E5552403FF74DF
:1006BE00192555F8E6FD120BD37F057E00120C8628
:1006CE00055580DFE518640C7052120CA27F057E72
:1006DE0000120C867BFF7A09790F7D017F01120BC8
:0B06EE0068E4F555E555C39517502151
:1006F900E5552403FF120A908F567F057E00120CE0
:0D07090086AF561200037F017E00120C86A1
:10071600055580D8120CA27BFF7A0979097D017FE5
:0407260001120B6849
:01072A0022AC
:100B8E0012053A7BFF7A0979097D017F01120B6804
:100B9E001205F1120DB48F1812046D12091C1206F3
:030BAE008E80ED49
:03000B0002072BBE
:10072B00C0E0C0F0C083C082C0D075D000C000C094
:0D073B0001C002C003C004C005C006C00715
:10074800758A66758CFC0509E50970020508050BB4
:10075800E50B7002050AC3E5099414E50894004006
:100768000975080075090012097BC3E50B94E8E5D3
:100778000A94034024750A00750B00E50D943C406B
:1007880003750D00AF16AE15AD14AC1312027CAE96
:090798000D050D74192EF8A607D9
:1007A100D007D006D005D004D003D002D001D000AC
:0B07B100D0D0D082D083D0F0D0E03256
:100D4500202020202020202020202020202020209E
:010D5500009D
:100CD500C2A6C2A58F80D2A77F017E00120C86C254
:080CE500A77F017E00020C86CE
:100AC000CFCDCFCECCCE12033C7C007D0A12033CAE
:040AD000ED2430FFE2
:100AD400D2A6C2A58F80D2A77F017E00120C86C247
:080AE400A77F017E00020C86D1
:100BF5008F5D8D5EE55DB40105E55E148009E55DFB
:0E0C0500B4020AE55E243F4480FF120CD522A3
:100D31007F38120CD57F0C120CD57F06120CD57F93
:040D410001020CD5CA
:0A0D90008B55120BF5AF55020AD483
:060B68008B578A588959E1
:100B6E00120BF5E4F55AAB57AA58A959855A827556
:0F0B7E0083001202FDFF6007120AD4055A80E7B8
:010B8D002245
:0B0848007F0A24FFFDE434FFFC7E006B
:08085300AB07AA068D828C831D
:10085B00755D00755E01EB4A7006F55DF55E804BCC
:10086B00E5824583700EEB64014A6008755D007587
:10087B005E018037E58245836031E58230E00FAE63
:10088B005DAF5EAD03AC0212032A8E5D8F5EAF03CC
:10089B00AE02AD03AC0212032AAA06AB07E583A294
:0F08AB00E713F583E58213F58280C9AE5DAF5E7A
:0108BA00221B
:040BB1008A578B587C
:100BB500120BF585595AE55AD394004010E55A129F
:0D0BC5000848AC57AD58120AC0155A80E917
:010BD2002200
:0409CC008A578B5863
:1009D000120BF5C3E55764809480400D7F2B120AFB
:1009E000D485575B85585C80107F2D120AD4C3E4F0
:1009F0009558F55CE49557F55B85595AE55AD394BB
:100A0000004010E55A120848AC5BAD5C120AC015F4
:030A10005A80E920
:010A130022C0
:040A14008A638B6402
:100A1800120BF5856566E566D39400402EE5667F82
:100A28001012084AAC63AD64CFCDCFCECCCE120342
:100A38003CEF540FF567C3940AE5675004243080EF
:0B0A4800022437FF120AD4156680CB91
:010A53002280
:040A54008A6A8B6BB4
:100A5800120BF5856C6DE56DD39400402AE56D2485
:100A6800FFFDE434FFFC7F027E00120853AC6AAD40
:100A78006BCFCDCFCECCCE12033CEF54012430FF48
:070A8800120AD4156D80CFA6
:010A8F002244
:100CA2007BFF7A0D79457D017F01120B687BFF7A0C
:0A0CB2000D79457D017F02020B68F9
:090DA400D2A0D2A1C2A0C2A1227A
:070DAD00C2A0D2A1D2A022D6
:020B1800AD0727
:100B1A00E4FB74807E00A803088006CEA2E713CE09
:100B2A0013D8F8FFEDF582EF558224FF92A0D2A1E7
:060B3A00C2A10BBB08DCA8
:010B40002292
:100C1300E4FFD2A0FED2A130A00D7480A806088004
:0D0C230002C313D8FC4207C2A10EBE08E8B0
:010C300022A1
:0A0D9A00EF24FF92A0D2A1C2A12213
:0B0D6300D2A0D2A1A2A0E433FFC2A1E5
:010D6E002262
:100C4E00C2AFD2B7C2B7120D7AD2B7120D85A2B704
:0B0C5E00E433F556120D7AD2AFAF560A
:010C69002268
:100D1B00C2AFC2B77E04DEFEEF24FF92B77E18DEB1
:050D2B00FED2B7D2AFBB
:010D300022A0
:100C6A00C2AFC2B77F02DFFED2B77F02DFFEA2B7F2
:0B0C7A00E433FE7F18DFFED2AFAF06B0
:010C8500224C
:020CBC00AD0782
:100CBE00E4FC7401A804088002C333D8FC5DFF1263
:060CCE000D1B0CBC08EC3C
:010CD40022FD
:100C3100E4FDFC120C6AEF600D7401A80408800247
:0C0C4100C333D8FC42050CBC08E9AF0529
:010C4D002284
:0A0C8600EF1FAC0670011E4C601158
:0F0C9000000000755F0B7560BED560FDD55FFA83
:030C9F0080E522CB
:040DBE00000000220F
:0A0D6F0000007F027E0FDEFEDFFCB5
:010D79002257
:0A0D7A0000007F067E5DDEFEDFFC58
:010D8400224C
:0A0D850000007F017EBDDEFEDFFCF2
:010D8F002241
:100BD3008F578D58120DA47FA0120B18120D63AFFF
:100BE30057120B18120D63AF58120B18120D630234
:020BF3000DAD46
:020A90008F577E
:100A9200120DA47FA0120B18120D63AF57120B1880
:100AA200120D63120DA47FA1120B18120D63120C0A
:0D0AB200138F587F01120D9A120DADAF5831
:010ABF002214
:0D0D5600120C4E7FCC120CBC7F44020CBC72
:100AEC00120C4E7FCC120CBC7FBE120CBC120C3103
:100AFC008F55120C31EFFEE555FFFDAC06EC1202E2
:0B0B0C0043E4FBFA79807841120117E6
:010B170022BB
:050DB400E4AF70F570D2
:010DB9002217
:100B4100E4FF20B1010F20B0027F0220B2027F0337
:100B510020B3027F047590FFC2902094047F10801F
:060B6100052095027F0C47
:010B6700226B
:10097B00856E6F120B418F6EE56FB40107E56E70DC
:10098B0003757001E56FB40207E56E7003757002B5
:10099B00E56FB40307E56E7003757003E56FB40480
:1009AB0007E56E7003757004E56FB41007E56E70A4
:1009BB0003757010E56FB40C07E56E700375700C62
:0109CB002209
:100CED005389F0438901758A66758CFCC28DD28C4F
:070CFD00D2A9D2AFC2B92257
:100D040075984043878053890F438920758BFA7502
:070D14008DFAC2ABD28E2262
:080003008F993099FDC299228A
:10000E00EC4D6011E8497017ED33EC3304600DE4EC
:10001E00FCFFFEFD22E933E8330470F80202E81219
:10002E0002B358046009E4CC24815006285009021A
:10003E0002F22840030202EFC0E0EB4A7044B9809E
:10004E0006D0E0FB0202DEEF4E701CBD8008EBFF17
:10005E00EAFEE9FD80EBE98DF0A4FEE5F00200F783
:10006E00E9CDF9EAFEEBFFEF89F0A4FCE5F0CE89CD
:10007E00F0A42EFFE435F0CD89F0A42DFEE435F08A
:10008E008067EF4E7005BD80D780C3EF8BF0A4ACB8
:10009E00F0EE8BF0A42CFCE435F0F8EF8AF0A42CF3
:1000AE00E5F038FCE433CB8DF0A42CFCE5F03BF806
:1000BE00EE8AF0A42CFCE5F038F8E433CF89F0A4F6
:1000CE002CFCE5F038CF3400CE89F0A42FFFE5F0FC
:1000DE003EFEE433C98DF0A42EFEE5F039CD8AF054
:1000EE00A42FFFE5F03EFEE43DFD33D0E0FB5007CC
:1000FE000BBB000F0202F2EC2CFCEF33FFEE33FED3
:06010E00ED33FD0202CA00
:100114000202F2EC5D046005E8590470030202E88F
:100124001202B3580460F6EC4860F2EC7004FDFE71
:10013400FF22C860DB2481C85009C39860025006BE
:100144000202EF9850CAF582E9294B4A7005AB8246
:100154000202DE75F0007C1A7880C3EF9BEE9AED04
:1001640099400DC3EF9BFFEE9AFEED99FDE842F036
:10017400DC23ACF0D0E0FFD0E0FED0E0FDAB822089
:10018400E7101BEB60BAEC2CFCEF33FFEE33FEED13
:1001940033FD0202CAE803F830E705C0F075F00049
:1001A400EF2FFFEE33FEED33FD40B830E7C280AAF7
:1001B40074F8CC6480CCC86480C8F58204604FC3F2
:1001C400EB9FF5F0EA9E42F0E99D42F0E89C45F091
:1001D400603C501DE5825FFFE582D313CB5BCBF41B
:1001E4002B5582FB50280ABA002409B90020088044
:1001F4001DE5825BFBE582D313CF5FCFF4C3132FDE
:100204005582FF50090EBE00050DBD00010CC3EB65
:100214009FF5F0EA9E42F0E99D42F0E89C45F060CB
:0902240007CC4820E701B3EC22ED
:10022D00ED33EC33600A047003BD8004ECB2E7FCDF
:01023D00229E
:10023E0075F020800E75F010800575F0087D007E3B
:10024E00007F003392D530D50312045FEC3340109B
:10025E00EF33FFEE33FEED33FDEC33FCD5F0ED2244
:0E026E00E5F0247EA2D513CC92E7CDCEFF2280
:10027C00EDD2E7CD33EC3392D524814006E4FFFE7A
:10028C00FDFC22FCE4CFCECDCC24E0501174FF80D9
:10029C00EDC3CC13CCCD13CDCE13CECF13CF047076
:0702AC00F030D5DE02045F13
:1002B300E9D2E7C933E833F892D5EDD2E7CD33EC91
:0702C30033FC5002B2D5220A
:1002CA00EC30E7100FBF000C0EBE00080DBD000495
:1002DA000BEB6014A2D5EB13FCED92E7FD2274FF41
:1002EA00FCFDFEFF22E480F8A2D574FF13FC7D809A
:0302FA00E480EFAE
:030000000207BC38
:0C07BC00787FE4F6D8FD75817002080318
:1002FD00BB010CE58229F582E5833AF583E02250B6
:10030D0006E92582F8E622BBFE06E92582F8E222FF
:0D031D00E58229F582E5833AF583E4932219
:10032A00EF8DF0A4A8F0CF8CF0A428CE8DF0A42EE7
:02033A00FE22A1
:10033C00BC000BBE0029EF8DF084FFADF022E4CCA5
:10034C00F875F008EF2FFFEE33FEEC33FCEE9DEC6E
:10035C00984005FCEE9DFE0FD5F0E9E4CEFD22EDB4
:10036C00F8F5F0EE8420D21CFEADF075F008EF2FFE
:10037C00FFED33FD4007985006D5F0F222C398FDEF
:05038C000FD5F0EA228C
:1003910075F008758200EF2FFFEE33FECD33CDCC23
:1003A10033CCC58233C5829BED9AEC99E5829840A6
:1003B1000CF582EE9BFEED9AFDEC99FC0FD5F0D683
:1003C100E4CEFBE4CDFAE4CCF9A88222B800C1B9AD
:1003D1000059BA002DEC8BF084CFCECDFCE5F0CBEB
:1003E100F97818EF2FFFEE33FEED33FDEC33FCEB24
:1003F10033FB10D703994004EB99FB0FD8E5E4F9DF
:10040100FA227818EF2FFFEE33FEED33FDEC33FCCB
:10041100C933C910D7059BE99A4007EC9BFCE99ABF
:10042100F90FD8E0E4C9FAE4CCFB2275F010EF2F04
:10043100FFEE33FEED33FDCC33CCC833C810D70704
:100441009BEC9AE899400AED9BFDEC9AFCE899F83F
:0E0451000FD5F0DAE4CDFBE4CCFAE4C8F922D2
:0E045F00C3E49FFFE49EFEE49DFDE49CFC22AE
:1007C800020B8EE493A3F8E493A34003F68001F2AE
:1007D80008DFF48029E493A3F85407240CC8C33332
:1007E800C4540F4420C8834004F456800146F6DF01
:1007F800E4800B0102040810204080900DBAE47ECA
:10080800019360BCA3FF543F30E509541FFEE493F5
:10081800A360010ECF54C025E060A840B8E493A3BC
:10082800FAE493A3F8E493A3C8C582C8CAC583CAE7
:10083800F0A3C8C582C8CAC583CADFE9DEE780BE9F
:010DBD000035
:00000001FF
